S01600004E54495F344D5F4469706C6F6D612E737265631E
S11300000C942A000C9405020C942E020C945702B2
S11300100C949B030C9472030C94CE020C94F70280
S11300200C9420030C9449030C94A5020C947C02B8
S11300300C9447000C9412040C9447000C94E903AC
S11300400C9400010C9447000C9447000C94470056
S11300500C94470011241FBECFE5D8E0DEBFCDBF0E
S113006010E0A0E6B0E0E0E8F9E002C005900D92EF
S1130070AE37B107D9F721E0AEE7B0E001C01D9279
S1130080A736B207E1F70E9492000C94BE040C94C8
S1130090000080E009C0E82FF0E0EE0FFF1FE156FA
S11300A0FF4F118210828F5F8233A8F308958091ED
S11300B07E00882319F0813319F0089580E00895B3
S11300C081E00895CF93DF93EC010E9457008130C3
S11300D0A1F080918000E82FF0E0288130E0EE0F5D
S11300E0FF1FE156FF4F318320838F5F8093800091
S11300F080917E008F5F80937E00DF91CF91089581
S11301000E945700882361F080917F008F5F809365
S11301107F0080917E00815080937E0081E008956D
S113012080E008950E94AB0080E00E94E0000E94FD
S11301308D040E94030280E690E00E949E048AE6F9
S113014090E00E949E0484E790E00E949E0480E078
S11301500E94C000FFCF41E067E081E00E942901D6
S113016041E064E080E00E94290141E065E080E034
S11301700E94290141E066E080E00E94290108957F
S1130180813061F028F0823079F0833099F008955D
S113019041E067E081E00E949601089541E064E057
S11301A080E00E949601089541E065E080E00E94AD
S11301B09601089541E066E080E00E94960108956A
S11301C0813061F028F0823079F0833099F008951D
S11301D040E067E081E00E949601089540E064E019
S11301E080E00E949601089540E065E080E00E946E
S11301F09601089540E066E080E00E94960108952B
S11302001F920F920FB60F9211242F933F934F9387
S11302105F936F937F938F939F93AF93BF93EF936A
S1130220FF93E0918100F0918200309709F00995E5
S1130230FF91EF91BF91AF919F918F917F916F91BA
S11302405F914F913F912F910F900FBE0F901F9090
S11302501895813001F130F08230B1F1833009F426
S11302604CC00895413059F42AB381E090E002C0B3
S1130270880F991F6A95E2F7822B8ABB08952AB3E7
S113028081E090E002C0880F991F6A95E2F780959B
S113029082238ABB0895413059F427B381E090E06A
S11302A002C0880F991F6A95E2F7822B87BB0895D5
S11302B027B381E090E002C0880F991F6A95E2F7A6
S11302C08095822387BB0895413059F424B381E09B
S11302D090E002C0880F991F6A95E2F7822B84BBD5
S11302E0089524B381E090E002C0880F991F6A95B5
S11302F0E2F78095822384BB0895413059F421B3F9
S113030081E090E002C0880F991F6A95E2F7822B82
S113031081BB089521B381E090E002C0880F991F4A
S11303206A95E2F78095822381BB0895813001F1BB
S113033030F08230B1F1833009F44CC0089541119A
S11303400CC02BB381E090E002C0880F991F6A951E
S1130350E2F7809582238BBB08952BB381E090E074
S113036002C0880F991F6A95E2F7822B8BBB089510
S113037041110CC028B381E090E002C0880F991F9E
S11303806A95E2F78095822388BB089528B381E0BB
S113039090E002C0880F991F6A95E2F7822B88BB10
S11303A0089541110CC025B381E090E002C0880F8C
S11303B0991F6A95E2F78095822385BB089525B33A
S11303C081E090E002C0880F991F6A95E2F7822BC2
S11303D085BB089541110CC022B381E090E002C0B6
S11303E0880F991F6A95E2F78095822382BB08954E
S11303F022B381E090E002C0880F991F6A95E2F76A
S1130400822B82BB0895789408951F920F920FB6A1
S11304100F9211242F933F934F935F936F937F9386
S11304208F939F93AF93BF93EF93FF93E0918500D6
S1130430F0918600309709F00995FF91EF91BF91F3
S1130440AF919F918F917F916F915F914F913F9168
S11304502F910F900FBE0F901F9018951F920F921F
S11304600FB60F9211242F933F934F935F936F9383
S11304707F938F939F93AF93BF93EF93FF93E091F9
S11304808300F0918400309709F00995FF91EF9172
S1130490BF91AF919F918F917F916F915F914F9198
S11304A03F912F910F900FBE0F901F9018951F92A0
S11304B00F920FB60F9211242F933F934F935F9394
S11304C06F937F938F939F93AF93BF93EF93FF9318
S11304D0E0E0F0E00995FF91EF91BF91AF919F911A
S11304E08F917F916F915F914F913F912F910F90D9
S11304F00FBE0F901F9018951F920F920FB60F9278
S113050011242F933F934F935F936F937F938F9314
S11305109F93AF93BF93EF93FF93E0919500F09176
S11305209600309709F00995FF91EF91BF91AF9133
S11305309F918F917F916F915F914F913F912F91F7
S11305400F900FBE0F901F9018951F920F920FB629
S11305500F9211242F933F934F935F936F937F9345
S11305608F939F93AF93BF93EF93FF93E091930087
S1130570F0919400309709F00995FF91EF91BF91A4
S1130580AF919F918F917F916F915F914F913F9127
S11305902F910F900FBE0F901F9018951F920F92DE
S11305A00FB60F9211242F933F934F935F936F9342
S11305B07F938F939F93AF93BF93EF93FF93E091B8
S11305C08B00F0918C00309709F00995FF91EF9121
S11305D0BF91AF919F918F917F916F915F914F9157
S11305E03F912F910F900FBE0F901F9018951F925F
S11305F00F920FB60F9211242F933F934F935F9353
S11306006F937F938F939F93AF93BF93EF93FF93D6
S1130610E0918F00F0919000309709F00995FF91D7
S1130620EF91BF91AF919F918F917F916F915F9166
S11306304F913F912F910F900FBE0F901F901895DF
S11306401F920F920FB60F9211242F933F934F9343
S11306505F936F937F938F939F93AF93BF93EF9326
S1130660FF93E0918D00F0918E00309709F0099589
S1130670FF91EF91BF91AF919F918F917F916F9176
S11306805F914F913F912F910F900FBE0F901F904C
S113069018951F920F920FB60F9211242F933F9328
S11306A04F935F936F937F938F939F93AF93BF9376
S11306B0EF93FF93E0919100F0919200309709F04D
S11306C00995FF91EF91BF91AF919F918F917F9188
S11306D06F915F914F913F912F910F900FBE0F90AB
S11306E01F9018951F920F920FB60F9211242F93FB
S11306F03F934F935F936F937F938F939F93AF93A6
S1130700BF93EF93FF93E0918900F0918A003097B3
S113071009F00995FF91EF91BF91AF919F918F914E
S11307207F916F915F914F913F912F910F900FBEE9
S11307300F901F9018951F920F920FB60F921124CD
S11307402F933F934F935F936F937F938F939F93D5
S1130750AF93BF93EF93FF93E0918700F0918800EC
S1130760309709F00995FF91EF91BF91AF919F9157
S11307708F917F916F915F914F913F912F910F9046
S11307800FBE0F901F90189590BD89B98AB18061F2
S11307908AB98AB188608AB980B5866A80BD8AB10F
S11307A080688AB98AB180648AB908958CB9089539
S11307B08CB10895882319F0813031F00895709335
S11307C09A0060939900089570939800609397003D
S11307D008951F920F920FB60F9211242F933F93F7
S11307E04F935F936F937F938F939F93AF93BF9335
S11307F0EF93FF93E0919900F0919A00309709F0FC
S11308000995FF91EF91BF91AF919F918F917F9146
S11308106F915F914F913F912F910F900FBE0F9069
S11308201F9018951F920F920FB60F9211242F93B9
S11308303F934F935F936F937F938F939F93AF9364
S1130840BF93EF93FF93E0919700F0919800309756
S113085009F00995FF91EF91BF91AF919F918F910D
S11308607F916F915F914F913F912F910F900FBEA8
S11308700F901F90189590919E009F5F90939E00FB
S1130880E92FF0E0EB5CFE4F8081882329F092335E
S113089018F40E94D603089510929E000E945700F7
S11308A0882391F085E391E00E948000813061F417
S11308B085E391E00E948000E0919E00F0E0EB5C13
S11308C0FE4F80810E94D6030895CF93DF931F9239
S11308D0CDB7DEB70E94D803898389818D3071F04A
S11308E080919D00823350F4E82FF0E09981ED5F10
S11308F0FE4F90838F5F80939D000BC0E0919D001D
S1130900F0E0ED5FFE4F108210929D0081E0809335
S11309109C000F90DF91CF91089587E690E00E94AC
S1130920C40365E674E081E00E94DA036BE374E0DB
S113093080E00E94DA030E9449000895BC0190E01F
S11309400BC0292F30E0FB01E20FF31F4081F901B6
S1130950EB5CFE4F40839F5F923398F385E391E015
S11309600E94620080919B00811107C08091350133
S11309700E94D60381E080939B000895F894FFCFF2
S113098041414141414141412000424242424242AF
S1110990424220004343434343434343200079
S9030000FC
