:100000000C942A000C94F3010C941C020C944502ED
:100010000C9489030C9460030C94BC020C94E502CC
:100020000C940E030C9437030C9493020C946A0204
:100030000C9447000C94F8030C9447000C94CF03E5
:100040000C9440010C9447000C9447000C9447001A
:100050000C94470011241FBECFE5D8E0DEBFCDBF12
:1000600010E0A0E6B0E0E8E5F9E002C005900D92EE
:10007000A83BB107D9F723E0A8EBB0E001C01D927F
:10008000A536B207E1F70E94BD000C94AA040C94B7
:1000900000004BED50E029E180E090E0FA01E80F2C
:1000A000F91F1082019684319105C1F721504C5EF1
:1000B0005F4F2111F1CF08958091B800882321F07E
:1000C000893121F082E0089580E0089581E008956B
:1000D000CF93DF93D82FC92F0E945C008130F1F0BD
:1000E0008091BA00ED2FFC2F94E1899FA00111248B
:1000F00020E030E09191D901A40FB51FA552BF4F68
:100100009C932F5F3F4F24313105A1F78F5F809380
:10011000BA008091B8008F5F8093B800DF91CF91D3
:100120000895CF93DF93D82FC92F0E945C008823B6
:1001300001F18091B900ED2FFC2F94E1899FA0017E
:10014000112420E030E0D901A40FB51FA552BF4F04
:100150009C9191932F5F3F4F24313105A1F78F5F21
:100160008093B9008091B80081508093B80081E0FD
:1001700001C080E0DF91CF9108950E94FE0080E0F1
:100180000E9429010E9474040E94F10180E690E01F
:100190000E94840484E690E00E9484048AE690E051
:1001A0000E94840480E790E00E94840484E790E049
:1001B0000E9484048EE790E00E94840484E890E02A
:1001C0000E9484048BE890E00E94840483E990E01C
:1001D0000E94840486E990E00E9484048AE990E009
:1001E0000E94840484EA90E00E9484048EEA90E0F5
:1001F0000E94840480E00E941201FFCF41E067E08A
:1002000081E00E94690141E064E080E00E946901B0
:1002100041E065E080E00E94690141E066E080E045
:100220000C946901813051F028F0823051F0833014
:1002300059F0089541E067E081E009C041E064E0E1
:1002400005C041E065E002C041E066E080E00C945A
:10025000AD01813051F028F0823051F0833059F0F7
:10026000089540E067E081E009C040E064E005C037
:1002700040E065E002C040E066E080E00C94AD0143
:100280001F920F920FB60F9211242F933F934F930B
:100290005F936F937F938F939F93AF93BF93EF93EE
:1002A000FF93E091BB00F091BC00309709F00995F5
:1002B000FF91EF91BF91AF919F918F917F916F913E
:1002C0005F914F913F912F910F900FBE0F901F9014
:1002D00018958130A9F028F0823009F1833071F14E
:1002E00008952AB381E090E001C0880F6A95EAF78B
:1002F000413011F4822B02C0809582238ABB08957D
:1003000027B381E090E001C0880F6A95EAF7413099
:1003100011F4822B02C08095822387BB089524B3F9
:1003200081E090E001C0880F6A95EAF7413011F44E
:10033000822B02C08095822384BB089521B381E083
:1003400090E001C0880F6A95EAF7413011F4822BE2
:1003500002C08095822381BB08958130A9F028F0E6
:10036000823009F1833071F108952BB381E090E080
:1003700001C0880F6A95EAF7411103C08095822376
:1003800001C0822B8BBB089528B381E090E001C0AF
:10039000880F6A95EAF7411103C08095822301C056
:1003A000822B88BB089525B381E090E001C0880FBF
:1003B0006A95EAF7411103C08095822301C0822B20
:1003C00085BB089522B381E090E001C0880F6A9553
:1003D000EAF7411103C08095822301C0822B82BBC2
:1003E0000895789408951F920F920FB60F921124DA
:1003F0002F933F934F935F936F937F938F939F932D
:10040000AF93BF93EF93FF93E091BF00F091C000D3
:10041000309709F00995FF91EF91BF91AF919F91AE
:100420008F917F916F915F914F913F912F910F909D
:100430000FBE0F901F9018951F920F920FB60F923C
:1004400011242F933F934F935F936F937F938F93D9
:100450009F93AF93BF93EF93FF93E091BD00F09113
:10046000BE00309709F00995FF91EF91BF91AF91D0
:100470009F918F917F916F915F914F913F912F91BC
:100480000F900FBE0F901F9018951F920F920FB6EE
:100490000F9211242F933F934F935F936F937F930A
:1004A0008F939F93AF93BF93EF93FF93E0E0F0E0C0
:1004B0000995FF91EF91BF91AF919F918F917F919E
:1004C0006F915F914F913F912F910F900FBE0F90C1
:1004D0001F9018951F920F920FB60F9211242F9311
:1004E0003F934F935F936F937F938F939F93AF93BC
:1004F000BF93EF93FF93E091CF00F091D00030973E
:1005000009F00995FF91EF91BF91AF919F918F9164
:100510007F916F915F914F913F912F910F900FBEFF
:100520000F901F9018951F920F920FB60F921124E3
:100530002F933F934F935F936F937F938F939F93EB
:10054000AF93BF93EF93FF93E091CD00F091CE0076
:10055000309709F00995FF91EF91BF91AF919F916D
:100560008F917F916F915F914F913F912F910F905C
:100570000FBE0F901F9018951F920F920FB60F92FB
:1005800011242F933F934F935F936F937F938F9398
:100590009F93AF93BF93EF93FF93E091C500F091CA
:1005A000C600309709F00995FF91EF91BF91AF9187
:1005B0009F918F917F916F915F914F913F912F917B
:1005C0000F900FBE0F901F9018951F920F920FB6AD
:1005D0000F9211242F933F934F935F936F937F93C9
:1005E0008F939F93AF93BF93EF93FF93E091C900D5
:1005F000F091CA00309709F00995FF91EF91BF91F2
:10060000AF919F918F917F916F915F914F913F91AA
:100610002F910F900FBE0F901F9018951F920F9261
:100620000FB60F9211242F933F934F935F936F93C5
:100630007F938F939F93AF93BF93EF93FF93E0913B
:10064000C700F091C800309709F00995FF91EF912C
:10065000BF91AF919F918F917F916F915F914F91DA
:100660003F912F910F900FBE0F901F9018951F92E2
:100670000F920FB60F9211242F933F934F935F93D6
:100680006F937F938F939F93AF93BF93EF93FF935A
:10069000E091CB00F091CC00309709F00995FF91E3
:1006A000EF91BF91AF919F918F917F916F915F91EA
:1006B0004F913F912F910F900FBE0F901F90189563
:1006C0001F920F920FB60F9211242F933F934F93C7
:1006D0005F936F937F938F939F93AF93BF93EF93AA
:1006E000FF93E091C300F091C400309709F00995A1
:1006F000FF91EF91BF91AF919F918F917F916F91FA
:100700005F914F913F912F910F900FBE0F901F90CF
:1007100018951F920F920FB60F9211242F933F93AB
:100720004F935F936F937F938F939F93AF93BF93F9
:10073000EF93FF93E091C100F091C200309709F070
:100740000995FF91EF91BF91AF919F918F917F910B
:100750006F915F914F913F912F910F900FBE0F902E
:100760001F90189590BD89B9549A539A80B5866A9E
:1007700080BD579A569A08958CB908958CB1089502
:10078000882319F0813031F008957093D40060937C
:10079000D30008957093D2006093D10008951F9202
:1007A0000F920FB60F9211242F933F934F935F93A5
:1007B0006F937F938F939F93AF93BF93EF93FF9329
:1007C000E091D300F091D400309709F00995FF91A2
:1007D000EF91BF91AF919F918F917F916F915F91B9
:1007E0004F913F912F910F900FBE0F901F90189532
:1007F0001F920F920FB60F9211242F933F934F9396
:100800005F936F937F938F939F93AF93BF93EF9378
:10081000FF93E091D100F091D200309709F0099553
:10082000FF91EF91BF91AF919F918F917F916F91C8
:100830005F914F913F912F910F900FBE0F901F909E
:100840001895CF93DF931F92CDB7DEB70E94BE03FA
:1008500089838981E091D8008D3061F0E23350F4D2
:100860008981AE2FB0E0AF5FBC4F8C93EF5FE09318
:10087000D80009C0F0E0EF5FFC4F10821092D80062
:1008800081E08093D7000F90DF91CF910895809100
:10089000D50081110FC0E091D900EF5FE093D9003E
:1008A000F0E0E153FD4F808181111BC081E0809316
:1008B000D5000DC0E091DA00EF5FE093DA00F0E0E0
:1008C000ED5CFC4F808181110CC01092DA000E9417
:1008D0005C00882341F083E393E00E9491008091C3
:1008E00033030C94BC03089587E690E00E94B203A2
:1008F00061E274E081E00E94C00367E474E080E09C
:100900000E94C0030C9449002091D600211110C010
:1009100021E02093D600FC01AFECB2E081918D93F1
:1009200083E0A130B807D1F78091CF020C94BC03CB
:10093000FC01A3E3B3E081918D9383E0A536B80772
:10094000D1F70E945C00813021F083E393E00C94A6
:0809500068000895F894FFCF40
:100958004D59200046554C4C20004E414D45200035
:1009680049532000414244554C4C414820004144E1
:10097800454C200041484D454420004D41524F55BB
:10098800462000492000414D2000454D4245444441
:1009980045442000534F4654574152452000454E88
:0809A80047494E45455220006D
:00000001FF
